:020000040800F2
:100000007808002089010008E5010008E5010008E2
:10001000E5010008E5010008E50100080000000016
:10002000000000000000000000000000E5010008E2
:10003000E501000800000000E5010008E5010008F6
:10004000E5010008E5010008E5010008E5010008F8
:10005000E5010008E5010008E5010008E5010008E8
:10006000E5010008E5010008E5010008E5010008D8
:10007000E5010008E5010008E5010008E5010008C8
:10008000E5010008E5010008E5010008E5010008B8
:10009000E5010008E5010008E5010008E5010008A8
:1000A000E5010008E5010008E5010008E501000898
:1000B000E50100088D040008CD050008E5010008F1
:1000C000E5010008E5010008E5010008E501000878
:1000D000E5010008E5010008E5010008E501000868
:1000E000E5010008E5010008E5010008E501000858
:1000F000E5010008E5010008E5010008E501000848
:10010000E5010008E5010008E5010008E501000837
:10011000E5010008E5010008E5010008E501000827
:10012000E5010008E5010008E5010008E501000817
:10013000E5010008E5010008E5010008E501000807
:10014000E5010008E5010008E5010008E5010008F7
:10015000E5010008E5010008E5010008E5010008E7
:10016000E5010008E5010008E5010008E5010008D7
:10017000E5010008E5010008E5010008E5010008C7
:10018000E5010008E501000880B582B000AF104B22
:100190007B60104B3B6007E03B681A1D3A607A6851
:1001A000111D796012681A603B680B4A9342F3D3C1
:1001B0000A480B494FF000028842B8BF40F8042BB0
:1001C000FADB00F075FB00BF0837BD4680BD00BFFD
:1001D000A41A0008000000201C0000201C000020C1
:1001E0007400002080B400AFFEE700BF80B584B08B
:1001F00000AFF860B9607A603B604021164800F0BB
:10020000FDFC40F20111154800F0F8FC04211448EF
:1002100000F0F4FCFB68012B03D140210E4800F0F4
:10022000DFFCBB68012B03D101210C4800F0D8FC96
:100230007B68012B03D10421094800F0D1FC3B6805
:10024000012B04D14FF48071044800F0C9FC00BFB9
:100250001037BD4680BD00BF0000024000040240D0
:100260000010024080B500AF0123002201210020D0
:10027000FFF7BCFF00BF80BD80B500AF00230122A7
:1002800000210120FFF7B2FF00BF80BD80B500AFA5
:100290000123002200210120FFF7A8FF00BF80BD3D
:1002A00080B500AF0023012201210020FFF79EFF4F
:1002B00000BF80BD80B586B000AF0121012000F0F5
:1002C000ABFB40233B610023BB7501233B7500233F
:1002D000FB7503237B7507F110031946174800F0DF
:1002E000D7FB0121022000F097FB40F20113BB6015
:1002F0000023BB7301233B730023FB7303237B7336
:1003000007F1080319460E4800F0C2FB0121102036
:1003100000F082FB04233B600023BB7101233B718F
:100320000023FB7103237B713B461946054800F00F
:10033000AFFB00BF1837BD4680BD00BF00000240C4
:10034000000402400010024080B586B000AF0121D9
:10035000082000F061FB0121102000F05DFB01216D
:10036000012000F059FB4FF470433B6101233B75C2
:100370000023BB7503237B750023FB7507F1100376
:1003800019463E4800F084FB0121012000F044FBA7
:1003900001233B6100233B7502237B750023BB7562
:1003A0000223FB7507F110031946354800F070FB76
:1003B00000F032FC00F05EFC0121042000F04AFB5A
:1003C0000B23BB600623BB800023BB810023FB8083
:1003D0003B1D19462B4800F0A3FD0121294800F0E0
:1003E00009FE0121022000F035FB40F6B833BB6066
:1003F00042F60413BB800023BB810023FB803B1D1E
:100400001946214800F08CFD01211F4800F0F2FD43
:100410000121022000F01EFB0121042000F01AFB44
:100420001E233B7000237B700023BB700123FB70F5
:100430003B46184600F014FD0121124800F048FE2A
:10044000012201210F4800F0F5FD1D233B70002320
:100450007B700023BB700123FB703B46184600F005
:10046000FFFC0121084800F033FE0122012106486B
:1004700000F0E0FD00BF1837BD4680BD000C024013
:1004800000000240000800400004004080B500AFBA
:1004900001214A4800F0F2FD0346002B00F08B805A
:1004A0000121464800F014FE454B1B68142B61DD0A
:1004B000434B1B68642B0ADC002300220021002030
:1004C000FFF794FE3E4B1B6801333D4A13603C4BE3
:1004D0001B68682B0ADC3A4B1B68642B06DDFFF7B0
:1004E000DFFE374B1B680133354A1360344B1B6802
:1004F000682B0ADD324B1B686C2B06DCFFF7C6FE4F
:100500002F4B1B6801332E4A13602D4B1B686C2B3D
:100510000ADD2B4B1B68702B06DCFFF7ADFE284B6A
:100520001B680133264A1360254B1B68702B0ADDBC
:10053000234B1B68742B06DCFFF794FE204B1B68D3
:1005400001331F4A13601E4B1B68742B0ADD1C4BC2
:100550001B68782B06DCFFF78FFE194B1B680133F5
:10056000174A1360164B1B68792B24D1144B0022B9
:100570001A6020E0124B1B68022B17DC114B1B6822
:10058000184601F027F802460F4B1B681946104623
:1005900001F030FA0346002B02D0FFF777FE01E0AE
:1005A000FFF76AFE064B00221A6004E0044B1B684A
:1005B0000133034A136000BF80BD00BF0004004048
:1005C00004000020000000207000002080B500AF73
:1005D00001210B4800F052FD0346002B0DD00121F4
:1005E000074800F075FD074B1B680133054A13608F
:1005F000054B1B680133044A136000BF80BD00BF78
:10060000000800401C0000202000002080B483B0BF
:1006100000AF7860064B00221A6000BF044B1A68D6
:100620007B689A42FADD00BF0C37BD4680BC70473C
:100630002000002080B584B000AF0121082000F028
:10064000EBF94FF48043BB600023BB7301233B7382
:100650000023FB7303237B7307F1080319460B4840
:1006600000F016FA4FF480633B6000233B710023D7
:10067000BB710223FB7102237B713B461946034881
:1006800000F006FA00BF1037BD4680BD000C0240E6
:1006900080B586B000AF00237B614FF480413848BD
:1006A00000F0ACFA0520FFF7B1FF4FF48041344869
:1006B00000F096FA0D20FFF7A9FF44F20A01304836
:1006C00000F09CFA2F4B3B6106E03B695A1E3A61F1
:1006D000002B01D12C4B4FE04FF48061284800F0F3
:1006E00065FA0346002BF0D00023FB600123BB60BA
:1006F00000237B60254B00221A60254B00221A60E4
:1007000015E07B6901337B61FB680133FB604FF4CB
:1007100080611B4800F04AFA0346002B02D17B6837
:1007200001337B607B680E2B01DD0023BB60BB685F
:10073000002BE6D1154B1B68B3F5167F04DD134B78
:100740001B68184600F028F800F048F802461346E7
:100750001B0113445B00184600F03CFF03460D49A3
:10076000184601F03FF803464FF08041184601F06B
:1007700039F803463B603B6818461837BD4680BDD4
:10078000000C024040420F00000080BF1C0000200F
:100790002000002000007A4480B485B000AF78606B
:1007A0001123FB600BE0FB6801330B49FA6851F839
:1007B0002220094941F82320FB68013BFB60FB68CC
:1007C000B3F1FF3FEFD1044A7B68136000BF1437D9
:1007D000BD4680BC704700BF2400002080B598B0A3
:1007E00000AF0023FB653B464C220021184601F078
:1007F0000BF90DE02D4AFB6D52F82320FB6D9B0099
:1008000007F160010B4443F8602CFB6D0133FB657D
:10081000FB6D132BEED10023BB6500237B653DE010
:100820007B6DBB657B6D3B6514E0BB6D9B0007F189
:100830006002134453F8602C3B6D9B0007F160018C
:100840000B4453F8603C9A4201DABB6D3B65BB6DCB
:100850000133BB65BB6D132BE7D17B6D9B0007F1AB
:100860006002134453F8603CFB643B6D9B0007F14E
:100870006002134453F8602C7B6D9B0007F160010C
:100880000B4443F8602C3B6D9B0007F1600213445E
:10089000FA6C43F8602C7B6D01337B657B6D122B0A
:1008A000BED17B6A18466037BD4680BD240000205B
:1008B00098B500AF00F0B0F9FFF746FDFFF7BAFEBC
:1008C000FFF7F8FC084B1B68184600F075FD03465F
:1008D0000C461846214600F02DF8FFF7D9FE0246D7
:1008E000014B1A60EEE700BF7000002080B582B0B7
:1008F00000AF78607B68012B0AD0032B0ED0002B51
:1009000000D011E04FF48051094800F077F90BE076
:100910004FF40051064800F071F905E04FF4004132
:10092000034800F06BF900BF00BF0837BD4680BD2B
:10093000000C024080B582B000AF78607B681D2B50
:1009400001DC00F055F87B681E2B04DD00F050F848
:10095000012000F015F87B68322B07DD00F048F825
:10096000012000F00DF8022000F00AF87B68782BD7
:1009700001DD00F029F800BF0837BD4680BD00BF8B
:1009800080B582B000AF78607B68012B0AD0022B63
:100990000ED0002B00D011E04FF48051094800F038
:1009A0001FF90BE04FF40051064800F019F905E07B
:1009B0004FF40041034800F013F900BF00BF0837AF
:1009C000BD4680BD000C024080B582B000AF002360
:1009D0007B6005E07868FFF7D3FF7B6801337B60BD
:1009E0007B68022BF6DD00BF0837BD4680BD00BF27
:1009F00080B582B000AF00237B6005E07868FFF728
:100A000075FF7B6801337B607B68022BF6DD00BFDE
:100A10000837BD4680BD00BF80B483B000AF7860AA
:100A20000B46FB70FB78002B06D00949084B1A6B6C
:100A30007B6813430B6306E00549054B1A6B7B6823
:100A4000DB4313400B6300BF0C37BD4680BC7047CF
:100A50000038024080B483B000AF78600B46FB7072
:100A6000FB78002B06D00949084B1A6C7B681343AE
:100A70000B6406E00549054B1A6C7B68DB431340A9
:100A80000B6400BF0C37BD4680BC70470038024085
:100A900080B487B000AF7860396000237B610023A9
:100AA0003B610023FB6000237B6176E001227B69D0
:100AB00002FA03F33B613B681A683B691340FB6031
:100AC000FA683B699A4265D17B681A687B695B006A
:100AD000032101FA03F3DB431A407B681A607B6849
:100AE0001A683B681B7919467B695B0001FA03F3BE
:100AF0001A437B681A603B681B79012B03D03B6863
:100B00001B79022B2ED17B689A687B695B000321DD
:100B100001FA03F3DB431A407B689A607B689A68AA
:100B20003B685B7919467B695B0001FA03F31A4362
:100B30007B689A607B685A687B699BB2012101FAE5
:100B400003F3DB431A407B685A607B685A683B6852
:100B50009B7919467B699BB201FA03F39BB21A4356
:100B60007B685A607B68DA687B699BB25B00032113
:100B700001FA03F3DB431A407B68DA607B68DA68CA
:100B80003B68DB7919467B695B0001FA03F31A4382
:100B90007B68DA607B6901337B617B690F2B85D9C8
:100BA00000BF1C37BD4680BC704700BF80B485B015
:100BB00000AF78600B467B800023FB737B681A696B
:100BC0007B881340002B02D00123FB7301E000233C
:100BD000FB73FB7B18461437BD4680BC704700BFD3
:100BE00080B483B000AF78600B467B807B687A88E6
:100BF0001A8300BF0C37BD4680BC704780B483B0F9
:100C000000AF78600B467B807B687A885A8300BF90
:100C10000C37BD4680BC704780B500AF124A124BFE
:100C20001B6843F0010313600F4B00229A600E4AC9
:100C30000D4B1B6823F0847323F4803313600A4B3D
:100C40000A4A5A60084A084B1B6823F48023136041
:100C5000054B0022DA6000F089F8054B4FF0006286
:100C60009A6000BF80BD00BF0038024010300024F1
:100C700000ED00E080B487B000AF00233B610023AB
:100C80007B610223FB600023BB6002237B60324B4D
:100C90009B6803F00C033B613B69042B07D0082BD6
:100CA00009D0002B3FD12D4B2D4A1A603FE02B4B32
:100CB0002C4A1A603BE0284B5B6803F480039B0DD1
:100CC000BB60254B5B6803F03F037B60BB68002B78
:100CD0000DD0244A7B68B2FBF3F21F4B596847F6EC
:100CE000C0730B409B0903FB02F37B610CE01C4AC1
:100CF0007B68B2FBF3F2184B596847F6C0730B40A0
:100D00009B0903FB02F37B61134B5B6803F44033E5
:100D10001B0C01335B00FB607A69FB68B2FBF3F3E9
:100D20000E4A136003E00D4B0D4A1A6000BF0A4BD8
:100D30009B6803F0F0031B090B4AD35CDBB23B61F9
:100D4000064B1A683B6922FA03F3044A136000BF9A
:100D50001C37BD4680BC70470038024008000020A8
:100D60000024F40000127A000C00002080B483B04C
:100D700000AF00237B6000233B60354A344B1B6887
:100D800043F480331360324B1B6803F400333B6041
:100D90007B6801337B603B68002B03D17B68B3F534
:100DA000A06FF0D12A4B1B6803F40033002B02D054
:100DB00001233B6001E000233B603B68012B42D1F3
:100DC000234A234B1B6C43F080531364214A214B6D
:100DD0001B6843F4804313601D4A1D4B9B6893605E
:100DE0001B4A1B4B9B6843F400439360184A184B03
:100DF0009B6843F4A0539360154B174A5A60144AFA
:100E0000134B1B6843F08073136000BF104B1B68CB
:100E100003F00073002BF9D0104B40F205621A600A
:100E20000B4A0B4B9B6823F003039360084A084B63
:100E30009B6843F00203936000BF054B9B6803F07F
:100E40000C03082BF9D100BF0C37BD4680BC70479E
:100E5000003802400070004008544007003C024047
:100E600080B485B000AF78600023FB730023BB73B0
:100E70000F237B737B68DB78002B38D0264BDB6835
:100E8000DB4303F4E0631B0AFB73FB7BC3F1040346
:100E9000BB737A7BFB7B42FA03F37B737B685B78E3
:100EA0001A46BB7B02FA03F3FB737B689A787B7B61
:100EB0001340DAB2FB7B1343FB73FB7B1B01FB7319
:100EC000164A7B681B781344FA7B83F80023134A85
:100ED0007B681B785B09DBB218467B681B7803F0E4
:100EE0001F03012101FA03F342F820300FE00B4900
:100EF0007B681B785B09DBB218467B681B7803F0C4
:100F00001F0301229A4000F1200341F8232000BF73
:100F10001437BD4680BC704700ED00E000E100E002
:100F200080B485B000AF786039600023FB817B68B6
:100F30001B88FB817B68284A934213D07B68274A31
:100F400093420FD07B68B3F1804F0BD07B68244A6B
:100F5000934207D07B68234A934203D07B68224A9E
:100F6000934208D1FB8923F07003FB813B685A88C8
:100F7000FB891343FB817B681C4A93420CD07B683E
:100F80001B4A934208D0FB8923F44073FB813B68E2
:100F90001A89FB891343FB817B68FA891A803B68B5
:100FA0005A687B68DA623B681A887B681A857B68B6
:100FB000094A934203D07B68084A934204D13B68B4
:100FC0009B7A9AB27B681A867B6801229A8200BF5C
:100FD0001437BD4680BC704700000140000401404A
:100FE0000004004000080040000C004000100040D9
:100FF0000014004080B483B000AF78600B46FB70F3
:10100000FB78002B08D07B681B889BB243F0010360
:101010009AB27B681A8007E07B681B889BB223F03A
:1010200001039AB27B681A8000BF0C37BD4680BCB2
:10103000704700BF80B483B000AF78600B467B8000
:1010400013467B707B78002B08D07B689B899AB213
:101050007B8813439AB27B689A8109E07B689B89FD
:101060009AB27B88DB439BB213409AB27B689A8129
:1010700000BF0C37BD4680BC704700BF80B485B050
:1010800000AF78600B467B800023FB730023BB819D
:1010900000237B817B681B8A9AB27B881340BB81CB
:1010A0007B689B899AB27B8813407B81BB89002B2C
:1010B00005D07B89002B02D00123FB7301E00023C4
:1010C000FB73FB7B18461437BD4680BC704700BFDE
:1010D00080B483B000AF78600B467B807B88DB43B5
:1010E0009AB27B681A8200BF0C37BD4680BC70473D
:1010F00081F0004102E000BF83F0004330B54FEAC9
:1011000041044FEA430594EA050F08BF90EA020F35
:101110001FBF54EA000C55EA020C7FEA645C7FEAC8
:10112000655C00F0E2804FEA5454D4EB5555B8BFEB
:101130006D420CDD2C4480EA020281EA030382EA5C
:10114000000083EA010180EA020281EA0303362DEE
:1011500088BF30BD11F0004F4FEA01314FF4801CC1
:101160004CEA113102D0404261EB410113F0004FD3
:101170004FEA03334CEA133302D0524263EB43038A
:1011800094EA050F00F0A780A4F10104D5F1200E28
:101190000DDB02FA0EFC22FA05F2801841F1000183
:1011A00003FA0EF2801843FA05F359410EE0A5F157
:1011B00020050EF1200E012A03FA0EFC28BF4CF088
:1011C000020C43FA05F3C01851EBE37101F000453E
:1011D00007D54FF0000EDCF1000C7EEB00006EEB4B
:1011E0000101B1F5801F1BD3B1F5001F0CD34908D5
:1011F0005FEA30004FEA3C0C04F101044FEA44522C
:1012000012F5800F80F09A80BCF1004F08BF5FEAB2
:10121000500C50F1000041EB045141EA050130BD92
:101220005FEA4C0C404141EB010111F4801FA4F135
:101230000104E9D191F0000F04BF01460020B1FA8A
:1012400081F308BF2033A3F10B03B3F120020CDAC2
:101250000C3208DD02F1140CC2F10C0201FA0CF0A0
:1012600021FA02F10CE002F11402D8BFC2F1200C05
:1012700001FA02F120FA0CFCDCBF41EA0C019040BB
:10128000E41AA2BF01EB0451294330BD6FEA040404
:101290001F3C1CDA0C340EDC04F11404C4F12002EF
:1012A00020FA04F001FA02F340EA030021FA04F301
:1012B00045EA030130BDC4F10C04C4F1200220FA58
:1012C00002F001FA04F340EA0300294630BD21FA96
:1012D00004F0294630BD94F0000F83F4801306BF5C
:1012E00081F480110134013D4EE77FEA645C18BF50
:1012F0007FEA655C29D094EA050F08BF90EA020FE7
:1013000005D054EA000C04BF1946104630BD91EADE
:10131000030F1EBF0021002030BD5FEA545C05D1E1
:101320004000494128BF41F0004130BD14F5800420
:101330003CBF01F5801130BD01F0004545F0FE4194
:1013400041F470014FF0000030BD7FEA645C1ABFC9
:10135000194610467FEA655C1CBF0B46024650EA00
:10136000013406BF52EA033591EA030F41F400212C
:1013700030BD00BF90F0000F04BF0021704730B5B2
:101380004FF4806404F132044FF000054FF0000187
:1013900050E700BF90F0000F04BF0021704730B548
:1013A0004FF4806404F1320410F0004548BF40421D
:1013B0004FF000013EE700BF42004FEAE2014FEA72
:1013C00031014FEA02701FBF12F07F4393F07F4F4D
:1013D00081F06051704792F0000F14BF93F07F4F7F
:1013E000704730B54FF4607401F0004521F00041C2
:1013F00020E700BF50EA010208BF704730B54FF048
:1014000000050AE050EA010208BF704730B511F04C
:10141000004502D5404261EB41014FF4806404F184
:1014200032045FEA915C3FF4DCAE4FF003025FEA06
:10143000DC0C18BF03325FEADC0C18BF033202EB8E
:10144000DC02C2F1200300FA03FC20FA02F001FAE8
:1014500003FE40EA0E0021FA02F11444C1E600BF87
:1014600080F0004002E000BF81F0004142001FBF59
:101470005FEA410392EA030F7FEA226C7FEA236C62
:101480006AD04FEA1262D2EB1363C1BFD218414057
:1014900048404140B8BF5B42192B88BF704710F0ED
:1014A000004F40F4000020F07F4018BF404211F090
:1014B000004F41F4000121F07F4118BF494292EAF8
:1014C000030F3FD0A2F1010241FA03FC10EB0C0024
:1014D000C3F1200301FA03F100F0004302D54942B1
:1014E00060EB4000B0F5000F13D3B0F1807F06D35E
:1014F00040084FEA310102F10102FE2A51D2B1F156
:10150000004F40EBC25008BF20F0010040EA03004A
:101510007047490040EB000010F4000FA2F10102F7
:10152000EDD1B0FA80FCACF1080CB2EB0C0200FA81
:101530000CF0AABF00EBC25052421843BCBFD040CF
:101540001843704792F0000F81F4000106BF80F449
:1015500000000132013BB5E74FEA41037FEA226C0C
:1015600018BF7FEA236C21D092EA030F04D092F0D7
:10157000000F08BF0846704790EA010F1CBF00200B
:10158000704712F07F4F04D1400028BF40F0004068
:10159000704712F100723CBF00F50000704700F088
:1015A000004343F0FE4040F4000070477FEA2262AF
:1015B00016BF08467FEA23630146420206BF5FEA80
:1015C000412390EA010F40F4800070474FF0000380
:1015D00004E000BF10F0004348BF40425FEA000C47
:1015E00008BF704743F0964301464FF000001CE0EF
:1015F00050EA010208BF70474FF000030AE000BF45
:1016000050EA010208BF704711F0004302D5404282
:1016100061EB41015FEA010C02BF844601460020F4
:1016200043F0B64308BFA3F18053A3F50003BCFA0F
:101630008CF2083AA3EBC25310DB01FA02FC6344BC
:1016400000FA02FCC2F12002BCF1004F20FA02F2C3
:1016500043EB020008BF20F00100704702F12002B6
:1016600001FA02FCC2F1200250EA4C0021FA02F217
:1016700043EB020008BF20EADC7070474FF0FF0C1C
:101680001CEAD0521EBF1CEAD15392EA0C0F93EA17
:101690000C0F6FD01A4480EA010C400218BF5FEAB9
:1016A00041211ED04FF0006343EA501043EA51112C
:1016B000A0FB01310CF00040B1F5000F3EBF490026
:1016C00041EAD3715B0040EA010062F17F02FD2A2A
:1016D0001DD8B3F1004F40EBC25008BF20F001000D
:1016E000704790F0000F0CF0004C08BF49024CEA24
:1016F000502040EA51207F3AC2BFD2F1FF0340EAB6
:10170000C250704740F400004FF00003013A5DDC26
:1017100012F1190FDCBF00F000407047C2F1000267
:10172000410021FA02F1C2F1200200FA02FC5FEA54
:10173000310040F1000053EA4C0308BF20EADC709E
:10174000704792F0000F00F0004C02BF400010F410
:10175000000F013AF9D040EA0C0093F0000F01F0BD
:10176000004C02BF490011F4000F013BF9D041EADF
:101770000C018FE70CEAD15392EA0C0F18BF93EAE1
:101780000C0F0AD030F0004C18BF31F0004CD8D10B
:1017900080EA010000F00040704790F0000F17BF92
:1017A00090F0004F084691F0000F91F0004F14D0D8
:1017B00092EA0C0F01D142020FD193EA0C0F03D130
:1017C0004B0218BF084608D180EA010000F0004033
:1017D00040F0FE4040F40000704740F0FE4040F40E
:1017E000400070474FF0FF0C1CEAD0521EBF1CEAAD
:1017F000D15392EA0C0F93EA0C0F69D0A2EB0302CB
:1018000080EA010C49024FEA402037D04FF0805364
:1018100043EA111143EA10130CF000408B4238BF29
:101820005B0042F17D024FF4000C8B4224BF5B1A37
:1018300040EA0C00B3EB510F24BFA3EB510340EA85
:101840005C00B3EB910F24BFA3EB910340EA9C0033
:10185000B3EBD10F24BFA3EBD10340EADC001B01A3
:1018600018BF5FEA1C1CE0D1FD2A3FF650AF8B4247
:1018700040EBC25008BF20F0010070470CF0004C54
:101880004CEA50207F32C2BFD2F1FF0340EAC2507F
:10189000704740F400004FF00003013A37E792F040
:1018A000000F00F0004C02BF400010F4000F013A9E
:1018B000F9D040EA0C0093F0000F01F0004C02BF99
:1018C000490011F4000F013BF9D041EA0C0195E702
:1018D0000CEAD15392EA0C0F08D142027FF47DAF9B
:1018E00093EA0C0F7FF470AF084676E793EA0C0F8B
:1018F00004D14B023FF44CAF08466EE730F0004C89
:1019000018BF31F0004CCAD130F000427FF45CAF18
:1019100031F000437FF43CAF5FE700BF4FF0FF3C86
:1019200006E000BF4FF0010C02E000BF4FF0010CD9
:101930004DF804CD4FEA40024FEA41037FEA226CA2
:1019400018BF7FEA236C11D001B052EA530C18BFC4
:1019500090EA010F58BFB2EB030088BFC81738BF29
:101960006FEAE17018BF40F0010070477FEA226C17
:1019700002D15FEA402C05D17FEA236CE4D15FEA13
:10198000412CE1D05DF8040B704700BF8446084647
:101990006146FFE70FB5FFF7C9FF002848BF10F108
:1019A000000F0FBD4DF808EDFFF7F4FF0CBF01204D
:1019B00000205DF808FB00BF4DF808EDFFF7EAFFD7
:1019C00034BF012000205DF808FB00BF4DF808ED92
:1019D000FFF7E0FF94BF012000205DF808FB00BF87
:1019E0004DF808EDFFF7D2FF94BF012000205DF80D
:1019F00008FB00BF4DF808EDFFF7C8FF34BF01201A
:101A000000205DF808FB00BF70B4840746D0541E68
:101A1000002A41D0CDB2034602E0621EE4B3144670
:101A200003F8015B9A07F8D1032C2ED9CDB245EA11
:101A300005250F2C45EA054519D903F11002264664
:101A4000103E0F2E42F8105C42F80C5C42F8085C25
:101A500042F8045C02F11002F2D8A4F1100222F064
:101A60000F0204F00F041032032C13440DD91E464C
:101A70002246043A032A46F8045BFAD8221F22F0D1
:101A800003020432134404F003042CB1C9B21C4411
:101A900003F8011BA342FBD170BC704714460346F8
:041AA000C2E700BFDA
:101AA4002D00000050000000007A030A000000002E
:0C1AB400000000000102030406070809FE
:0400000508000000EF
:00000001FF
